{
  "contractName": "Election",
  "abi": [
    {
      "constant": true,
      "inputs": [
        {
          "name": "",
          "type": "address"
        },
        {
          "name": "",
          "type": "uint256"
        }
      ],
      "name": "voters",
      "outputs": [
        {
          "name": "",
          "type": "bool"
        }
      ],
      "payable": false,
      "stateMutability": "view",
      "type": "function"
    },
    {
      "constant": true,
      "inputs": [],
      "name": "propagandaCount",
      "outputs": [
        {
          "name": "",
          "type": "uint256"
        }
      ],
      "payable": false,
      "stateMutability": "view",
      "type": "function"
    },
    {
      "constant": true,
      "inputs": [
        {
          "name": "",
          "type": "uint256"
        },
        {
          "name": "",
          "type": "uint256"
        }
      ],
      "name": "propaganda",
      "outputs": [
        {
          "name": "",
          "type": "uint256"
        }
      ],
      "payable": false,
      "stateMutability": "view",
      "type": "function"
    },
    {
      "inputs": [],
      "payable": false,
      "stateMutability": "nonpayable",
      "type": "constructor"
    },
    {
      "constant": false,
      "inputs": [
        {
          "name": "_propagandaId",
          "type": "uint256"
        },
        {
          "name": "_option",
          "type": "uint256"
        }
      ],
      "name": "vote",
      "outputs": [],
      "payable": false,
      "stateMutability": "nonpayable",
      "type": "function"
    },
    {
      "constant": true,
      "inputs": [
        {
          "name": "_voterAddress",
          "type": "address"
        },
        {
          "name": "_propagandaId",
          "type": "uint256"
        }
      ],
      "name": "ifVoted",
      "outputs": [
        {
          "name": "",
          "type": "bool"
        }
      ],
      "payable": false,
      "stateMutability": "view",
      "type": "function"
    },
    {
      "constant": true,
      "inputs": [
        {
          "name": "_propagandaId",
          "type": "uint256"
        },
        {
          "name": "_option",
          "type": "uint256"
        }
      ],
      "name": "seeVotes",
      "outputs": [
        {
          "name": "",
          "type": "uint256"
        }
      ],
      "payable": false,
      "stateMutability": "view",
      "type": "function"
    }
  ],
  "bytecode": "0x608060405234801561001057600080fd5b5061002a6002610061640100000000026401000000009004565b6100436002610061640100000000026401000000009004565b61005c6002610061640100000000026401000000009004565b6100bf565b6000600160008154809291906001019190505550600190505b81811115156100bb5760008060006001548152602001908152602001600020600083815260200190815260200160002081905550808060010191505061007a565b5050565b610411806100ce6000396000f300608060405260043610610078576000357c0100000000000000000000000000000000000000000000000000000000900463ffffffff1680630fc72e2a1461007d5780634586a64c146100e25780635c134d661461012d578063a3695e3714610192578063b384abef146101bd578063e9c6ca7a146101f4575b600080fd5b34801561008957600080fd5b506100c8600480360381019080803573ffffffffffffffffffffffffffffffffffffffff1690602001909291908035906020019092919050505061023f565b604051808215151515815260200191505060405180910390f35b3480156100ee57600080fd5b5061011760048036038101908080359060200190929190803590602001909291905050506102a7565b6040518082815260200191505060405180910390f35b34801561013957600080fd5b50610178600480360381019080803573ffffffffffffffffffffffffffffffffffffffff169060200190929190803590602001909291905050506102d5565b604051808215151515815260200191505060405180910390f35b34801561019e57600080fd5b506101a7610304565b6040518082815260200191505060405180910390f35b3480156101c957600080fd5b506101f2600480360381019080803590602001909291908035906020019092919050505061030a565b005b34801561020057600080fd5b5061022960048036038101908080359060200190929190803590602001909291905050506103c0565b6040518082815260200191505060405180910390f35b6000600260008473ffffffffffffffffffffffffffffffffffffffff1673ffffffffffffffffffffffffffffffffffffffff168152602001908152602001600020600083815260200190815260200160002060009054906101000a900460ff16905092915050565b6000806000848152602001908152602001600020600083815260200190815260200160002054905092915050565b60026020528160005260406000206020528060005260406000206000915091509054906101000a900460ff1681565b60015481565b610314338361023f565b15151561032057600080fd5b6001600260003373ffffffffffffffffffffffffffffffffffffffff1673ffffffffffffffffffffffffffffffffffffffff168152602001908152602001600020600084815260200190815260200160002060006101000a81548160ff0219169083151502179055506000808381526020019081526020016000206000828152602001908152602001600020600081548092919060010191905055505050565b60006020528160005260406000206020528060005260406000206000915091505054815600a165627a7a72305820b75398eab4a51bedd841b10344a7e606abab42c9019015ce6ce2e60a0eb3d5790029",
  "source": "// SPDX-License-Identifier: MIT\r\npragma solidity ^0.4.2;\r\n\r\ncontract Election {\r\n\r\n    //mapping to track propaganda => option => votes\r\n    mapping (uint => mapping(uint => uint)) public propaganda;\r\n    uint public propagandaCount;\r\n\r\n    //mapping to track address => propaganda => voted/not_voted\r\n    mapping (address => mapping(uint => bool)) public voters;\r\n    \r\n    // address owner;\r\n    function Election() public {\r\n        // adding default propagandas \r\n        addPropaganda(2);    //CAA\r\n        addPropaganda(2);    // Farm bills\r\n        addPropaganda(2);    // kashmir files\r\n    }\r\n    \r\n    // modifier onlyOwner {\r\n    //     require(msg.sender == owner);\r\n    //     _;\r\n    // }\r\n\r\n    function addPropaganda(uint _numOption) private {\r\n        propagandaCount++;\r\n        for (uint option=1; option <= _numOption; option++) {\r\n            //initializing votecount for each option of propaganda\r\n            propaganda[propagandaCount][option] = 0;\r\n        }\r\n    }\r\n\r\n    function vote (uint _propagandaId, uint _option) public {\r\n        // require that they haven't voted before\r\n        require(!ifVoted(msg.sender, _propagandaId));\r\n\r\n        // record that voter has voted\r\n        voters[msg.sender][_propagandaId] = true;\r\n\r\n        // update candidate vote Count\r\n        propaganda[_propagandaId][_option] ++;\r\n    } \r\n\r\n    function ifVoted(address _voterAddress, uint _propagandaId) public view returns(bool) {\r\n        return voters[_voterAddress][_propagandaId];\r\n    }\r\n\r\n    function seeVotes(uint _propagandaId, uint _option) public view returns(uint) {\r\n        return propaganda[_propagandaId][_option];\r\n    }\r\n}",
  "sourcePath": "C:\\toy_projects\\propaganda1\\contracts\\Election.sol",
  "compiler": {
    "name": "solc",
    "version": "0.4.26+commit.4563c3fc.Emscripten.clang"
  },
  "schemaVersion": "3.4.5",
  "updatedAt": "2022-03-31T16:38:57.175Z",
  "networkType": "ethereum",
  "devdoc": {
    "methods": {}
  },
  "userdoc": {
    "methods": {}
  }
}